{"abi":[{"type":"function","name":"deployCounter","inputs":[],"outputs":[{"name":"","type":"address","internalType":"contract Counter"}],"stateMutability":"nonpayable"}],"bytecode":{"object":"0x6080604052348015600e575f5ffd5b5061034a8061001c5f395ff3fe608060405234801561000f575f5ffd5b5060043610610029575f3560e01c80638f90742d1461002d575b5f5ffd5b61003561004b565b60405161004291906100fe565b60405180910390f35b5f60405161005890610077565b604051809103905ff080158015610071573d5f5f3e3d5ffd5b50905090565b6101fd8061011883390190565b5f73ffffffffffffffffffffffffffffffffffffffff82169050919050565b5f819050919050565b5f6100c66100c16100bc84610084565b6100a3565b610084565b9050919050565b5f6100d7826100ac565b9050919050565b5f6100e8826100cd565b9050919050565b6100f8816100de565b82525050565b5f6020820190506101115f8301846100ef565b9291505056fe6080604052348015600e575f5ffd5b506101e18061001c5f395ff3fe608060405234801561000f575f5ffd5b506004361061003f575f3560e01c80633fb5c1cb146100435780638381f58a1461005f578063d09de08a1461007d575b5f5ffd5b61005d600480360381019061005891906100e4565b610087565b005b610067610090565b604051610074919061011e565b60405180910390f35b610085610095565b005b805f8190555050565b5f5481565b5f5f8154809291906100a690610164565b9190505550565b5f5ffd5b5f819050919050565b6100c3816100b1565b81146100cd575f5ffd5b50565b5f813590506100de816100ba565b92915050565b5f602082840312156100f9576100f86100ad565b5b5f610106848285016100d0565b91505092915050565b610118816100b1565b82525050565b5f6020820190506101315f83018461010f565b92915050565b7f4e487b71000000000000000000000000000000000000000000000000000000005f52601160045260245ffd5b5f61016e826100b1565b91507fffffffffffffffffffffffffffffffffffffffffffffffffffffffffffffffff82036101a05761019f610137565b5b60018201905091905056fea264697066735822122037b0cbeb36660246117457a54eb512c1b0d614a23f5cb9c276dd07887fb9f21364736f6c634300081c0033a2646970667358221220b6097d819f8370383f18ff20125fd3941f51c3ce3fc09f2eb7e2f2899215dd9e64736f6c634300081c0033","linkReferences":{}},"methodIdentifiers":{"deployCounter()":"8f90742d"},"id":17}